:100000000C942A000C9447000C9447000C94470071
:100010000C9447000C9462050C9447000C94470024
:100020000C9447000C9447000C9447000C94470034
:100030000C9447000C9447000C9447000C94470024
:100040000C9447000C9447000C9447000C94470014
:100050000C94470011241FBECFE5D8E0DEBFCDBF12
:1000600010E0A0E6B0E0EAE7F7E102C005900D92EB
:10007000A03BB107D9F710E0A0EBB0E001C01D92A2
:10008000AE3EB107E1F70E940E0B0C94BB0B0C9433
:100090000000682F81E640E00E94DB0086B18760A7
:1000A00086B9379A08951F93182F0E94490017B9EF
:1000B0003E9A3D98369A349BFECF349A24B135B19E
:1000C000C9011F9108958434E9F0853438F48234ED
:1000D000A1F08334A0F4813461F40DC0823669F05C
:1000E000833618F4813629F406C0833641F084360D
:1000F00049F08FEF08956ABB03C067BB01C064BBC2
:1001000081E0089561BB81E00895843419F185345C
:1001100038F48234B1F08334C0F4813461F40DC01A
:10012000823679F0833618F4813629F406C0833696
:1001300061F0843679F08FEF08958BB3862B8BBBFB
:1001400007C088B3862B88BB03C085B3862B85BBCD
:1001500081E0089582B3862B82BB81E00895DF930E
:10016000CF930F92CDB7DEB78434D9F0853438F40D
:10017000823499F0833498F48134A9F40CC0823627
:1001800061F0833618F4813671F405C0833639F096
:10019000843649F406C089B307C086B305C083B36B
:1001A00003C080B301C08FEF8983898190E00F90F5
:1001B000CF91DF910895843409F46FC0853440F401
:1001C000823491F1833408F04CC0813471F40FC053
:1001D000823651F1833618F4813639F408C08336FB
:1001E00009F43FC0843609F458C08FEF08954423C2
:1001F00021F0413009F06EC00CC02AB381E090E0DC
:1002000002C0880F991F6A95E2F7809582238ABB06
:100210005FC02AB381E090E002C0880F991F6A9501
:10022000E2F7282B2ABB54C0442321F0413009F0C7
:1002300051C00CC027B381E090E002C0880F991F25
:100240006A95E2F78095822387BB42C027B381E09D
:1002500090E002C0880F991F6A95E2F7282B27BB10
:1002600037C0442319F04130A9F50CC024B381E014
:1002700090E002C0880F991F6A95E2F7809582236B
:1002800084BB26C024B381E090E002C0880F991F90
:100290006A95E2F7282B24BB1BC0442319F0413098
:1002A000C9F40CC021B381E090E002C0880F991F0F
:1002B0006A95E2F78095822381BB0AC021B381E071
:1002C00090E002C0880F991F6A95E2F7282B21BBA6
:1002D00081E0089581E00895683008F044C08434D6
:1002E000B1F1853438F48234E1F0833428F5813477
:1002F000D1F50CC08236A9F0833618F4813699F511
:1003000005C08336C9F0843671F521C02BB381E076
:1003100090E002C0880F991F6A95E2F7282B2BBB4B
:1003200020C028B381E090E002C0880F991F6A9531
:10033000E2F7282B28BB15C025B381E090E002C06E
:10034000880F991F6A95E2F7282B25BB0AC022B3B4
:1003500081E090E002C0880F991F6A95E2F7282B90
:1003600022BB81E008958FEF0895683008F049C0FE
:100370008434D1F1853440F48234F1F0833440F593
:10038000813409F03EC00CC08236B1F0833618F4D7
:100390008136B9F505C08336D9F0843691F524C08D
:1003A0002BB381E090E002C0880F991F6A95E2F7B5
:1003B000809582238BBB23C028B381E090E002C0EC
:1003C000880F991F6A95E2F78095822388BB17C032
:1003D00025B381E090E002C0880F991F6A95E2F78B
:1003E0008095822385BB0BC022B381E090E002C0E0
:1003F000880F991F6A95E2F78095822382BB81E07E
:1004000008958FEF0895843401F1853438F48234EF
:10041000A9F08334B0F4813461F40DC0823671F0F8
:10042000833618F4813629F406C0833651F08436B9
:1004300061F08FEF08958FEF8BBB05C08FEF88BB06
:1004400002C08FEF85BB81E008958FEF82BB81E012
:1004500008958434E9F0853438F48234A1F083348B
:10046000A0F4813461F40DC0823669F0833618F44B
:10047000813629F406C0833641F0843649F08FEF87
:1004800008951BBA03C018BA01C015BA81E00895D7
:1004900012BA81E00895683008F044C08434B1F1A4
:1004A000853438F48234E1F0833428F58134D1F591
:1004B0000CC08236A9F0833618F4813699F505C050
:1004C0008336C9F0843671F521C02BB381E090E00A
:1004D00002C0880F991F6A95E2F728272BBB20C01E
:1004E00028B381E090E002C0880F991F6A95E2F777
:1004F000282728BB15C025B381E090E002C0880FF3
:10050000991F6A95E2F7282725BB0AC022B381E02C
:1005100090E002C0880F991F6A95E2F7282722BB56
:1005200081E008958FEF0895683078F58434D9F02C
:10053000853438F4823499F0833498F4813429F581
:100540000CC0823661F0833618F48136F1F405C0B0
:10055000833639F08436C9F406C029B305C026B302
:1005600003C023B301C020B381E090E0062E02C097
:10057000880F991F0A94E2F730E08223932302C088
:10058000959587956A95E2F708958FEF0895E1991B
:10059000FECF9FBB8EBB6DBBE29AE19A0895E199B5
:1005A000FECF9FBB8EBBE09A80ED97E00197F1F7FD
:1005B0008DB30895DF92EF92FF920F931F93CF9325
:1005C000DF937C018B01D42EFB018081882371F0A5
:1005D000C0E0D0E006C0F80161918F010E94C7021F
:1005E0002196CE018E0D9F1DDC16A9F7DF91CF91CC
:1005F0001F910F91FF90EF90DF900895FF920F935E
:100600001F93CF93DF938C01EB01F42E8881882315
:1006100041F409C0C8010E94CF0289930F5F1F4FA8
:10062000FA94FF20B9F7DF91CF911F910F91FF90BE
:100630000895CF93DF93C0E0D0E0CE016FEF0E942A
:10064000C702219684E0C030D807B9F7DF91CF9177
:10065000089583B984E886BF06B607FEFDCF0895E6
:1006600084EA86BF06B607FEFDCF089584E986BFFB
:10067000089511B887E480B984E086BF089588237F
:1006800031F08295880F880F807C846801C084E8EF
:1006900086BF06B607FEFDCF83B108951FBC08953F
:1006A000CF92DF92EF92FF921F93CF93DF936C0173
:1006B000EB0183E48EBD85E00E94A20485E00E94E8
:1006C000010508B605FC05C085E00E94F1048823F9
:1006D000C1F385E00E94F104182F85E00E94120505
:1006E00085E00E941E05E6B4F7B488B7806288BF33
:1006F000113011F410E026C085E0BE010E94A20472
:1007000085E00E94010508B605FC05C085E00E9451
:10071000F1048823C1F385E00E94F10410E08130E8
:1007200009F011E085E00E94120585E00E941E0597
:1007300086B597B58E199F09F6019183808388B796
:10074000806288BF812FDF91CF911F91FF90EF9042
:10075000DF90CF900895CF92DF92EF92FF921F9398
:10076000CF93DF936C01EB0183E48EBD85E00E94A3
:10077000A20485E00E94010508B605FC05C085E0DD
:100780000E94F1048823C1F385E00E94F104182F30
:1007900085E00E94120585E00E941E05E6B4F7B4CC
:1007A00088B7806288BF113011F410E028C083E060
:1007B0008EBD85E0BE010E94A20485E00E94010575
:1007C00008B605FC05C085E00E94F1048823C1F34A
:1007D00085E00E94F10410E0813009F011E085E02D
:1007E0000E94120585E00E941E0586B597B58E19F8
:1007F0009F09F6019183808388B7806288BF812F2B
:10080000DF91CF911F91FF90EF90DF90CF900895EF
:10081000813091F0813050F08230C1F08330F9F4B2
:100820008F9A15BC89E685BD14BC0895BB9A13BE8A
:100830008BE683BF12BE08958D9A8FB581688FBDF8
:100840008EB58B608EBD1DBC1CBC08958C9A8FB577
:1008500081628FBD8EB58B608EBD1DBC1CBC0895A2
:10086000613051F0613030F0623051F0633059F452
:1008700083BD08958CBF089590E09BBD8ABD089507
:1008800090E099BD88BD0895262F9FEF899FC001F4
:10089000112464E670E00E94550B222321F02330DE
:1008A00019F463BD08956CBF08958FB9779BFECF8F
:1008B0008FB10895CF93DF93EC0187E00E9401058B
:1008C00088818FB9779905C087E00E94F104882359
:1008D000C9F387E00E94120587E00E941E058EB1D1
:1008E0009FB19883881F8827881FDF91CF91089533
:1008F00093E69DB9813029F46C9A87B3806B87BBEE
:1009000001C0BE9A87E065E070E00E94A2040895ED
:1009100090E0FC01EE0FFF1FE80FF91FDF011196B9
:1009200080EB90E0AA0FBB1FA80FB91F11961C9275
:100930001E92EE0FFF1FE80FF91F11821082148222
:100940001582089590E0FC01EE0FFF1FE80FF91FDC
:10095000DF01AA0FBB1FA055BF4F8D919C9111972E
:10096000892B71F411967C936E93EE0FFF1FEE545A
:10097000FF4F1182108214961C92149715961C92A8
:10098000089540E050E09A01220F331F240F351FD5
:10099000D901AA0FBB1FA055BF4F15966C91159793
:1009A0006130B1F4F901EE0FFF1FEE54FF4F80816B
:1009B0009181019691838083208131818D919C91D9
:1009C00011972817390721F41182108214966C931D
:1009D0004F5F5F4F4A305105B1F608950E94C10440
:1009E000089590E0FC01EE0FFF1FE80FF91FEE0FD6
:1009F000FF1FE055FF4F8481882311F0148281E0AE
:100A0000089590E0FC01EE0FFF1FE80FF91FEE0FB5
:100A1000FF1FE055FF4F80819181892B11F081E00C
:100A20008583089590E0FC01EE0FFF1FE80FF91F8A
:100A3000EE0FFF1FE055FF4F1582089590E0FC0177
:100A4000EE0FFF1FE80FF91FEE0FFF1FEE54FF4FD1
:100A50001182108208950E944B058EEE94E00E9450
:100A6000580580E090E0FC01EE0FFF1FE80FF91F32
:100A7000EE0FFF1FDF01AE54BF4F11961C921E9266
:100A8000E055FF4F118210821482158201968A3040
:100A9000910549F7089585B5876085BD89E784BDCF
:100AA00089B7806489BF88B7806488BF78940895C7
:100AB0009093ED008093EC0008951092ED00109259
:100AC000EC0008951F920F920FB60F9211242F93EE
:100AD0003F934F935F936F937F938F939F93AF93C6
:100AE000BF93EF93FF93E091EC00F091ED0030970E
:100AF00009F0099589E784BD88B7806488BFFF91B4
:100B0000EF91BF91AF919F918F917F916F915F9185
:100B10004F913F912F910F900FBE0F901F901895FE
:100B20005F9BFECF8CB108955D9BFECF8CB908957D
:100B3000FC0180E006C090815D9BFECF9CB98F5F79
:100B400031968617C0F3089520E004C05D9BFECF68
:100B5000ECB92F5FFC01E20FF11DE081EE23B1F74C
:100B600008955D9BFECF8DE08CB95D9BFECF8AE042
:100B70008CB90895CF92DF92EF92FF920F931F935B
:100B8000DF93CF9300D0CDB7DEB7F82ED62EC42E8C
:100B90006AE00E94350B90E08E010F5F1F4FB80195
:100BA0004AE050E00E948A0BC8010E94A4058F2DE4
:100BB0006AE00E94350B892F90E0B8014AE050E0CE
:100BC0000E948A0BC8010E94A40580E6E82E80E0FE
:100BD000F82EC7010E94A4058D2D6AE00E94350BF6
:100BE00090E0B8014AE050E00E948A0BC8010E94E0
:100BF000A4058D2D6AE00E94350B892F90E0B80185
:100C00004AE050E00E948A0BC8010E94A405C70177
:100C10000E94A4058C2D6AE00E94350B90E0B8017B
:100C20004AE050E00E948A0BC8010E94A4058C2D66
:100C30006AE00E94350B892F90E0B8014AE050E04D
:100C40000E948A0BC8010E94A4050F900F90CF91BB
:100C5000DF911F910F91FF90EF90DF90CF9008955B
:100C60000F931F93DF93CF9300D000D000D0CDB768
:100C7000DEB78E010F5F1F4F26E0F80111922A9513
:100C8000E9F7B8014AE050E00E948A0B80E0980141
:100C900004C05D9BFECFECB98F5FF901E80FF11D39
:100CA000E081EE23B1F726960FB6F894DEBF0FBEB3
:100CB000CDBFCF91DF911F910F9108950F931F9397
:100CC000DF93CF9300D000D000D0CDB7DEB78E0138
:100CD0000F5F1F4F26E0F80111922A95E9F7B8013E
:100CE0004AE050E00E948A0B82E690E060E10E94B8
:100CF000980590E098014AE107C05D9BFECFECB9F2
:100D0000842F8A95F1F79F5FF901E90FF11DE081CA
:100D1000EE2399F726960FB6F894DEBF0FBECDBF2F
:100D2000CF91DF911F910F9108950F931F93DF9340
:100D3000CF9300D000D000D0CDB7DEB78E010F5FCB
:100D40001F4F26E0F80111922A95E9F7B8014AE011
:100D500050E00E948A0B83E790E06FE00E949805C4
:100D600020E0B8013EE240ED57E00CC05D9BFECFB5
:100D7000ECB9213019F45D9BFECF3CB9CA01019753
:100D8000F1F72F5FFB01E20FF11DE081EE2371F718
:100D900082E890E063E00E94980526960FB6F894EA
:100DA000DEBF0FBECDBFCF91DF911F910F91089590
:100DB0001F93182F86E00E9401055D9905C086E00B
:100DC0000E94F1048823C9F386E00E94120586E0A0
:100DD0000E941E055D9902C080E002C01CB981E03E
:100DE0001F910895CF93DF93EC0186E00E940105E7
:100DF0005F9905C086E00E94F1048823C9F386E06C
:100E00000E94120586E00E941E058BB19CB198835A
:100E1000881F8827881FDF91CF910895FC011AB899
:100E200010BC87818111579A80858111569A8185DE
:100E30008111549A82858111539A90B58681829549
:100E4000807F892B80BD90B58581880F880F880FA2
:100E5000892B80BD8481893011F4529A0CC0853071
:100E600069F0863019F480B5826807C0873019F4BC
:100E700080B5846802C080B5866880BD20813181DC
:100E80004281538164E0220F331F441F551F6A952E
:100E9000D1F760E072E18AE790E00E94680B215090
:100EA000304040405040BB27A52F942F832F80BD5A
:100EB00029B986E065E070E00E94A204089598B325
:100EC000907F982B98BB0895EF92FF920F931F93FA
:100ED000CF93DF93EC0168EE73E00E94410B182F73
:100EE000092F64E670E00E94410BF82EE92E83E0A2
:100EF000C83ED807F0F082E462E00E94B50183E4C6
:100F000063E00E946C0181E465E00E946C0181E471
:100F100064E00E946C0128B3CE0168EE73E00E9489
:100F2000410B207F262B28BB80E197E20197F1F748
:100F300003C0C436D105F0F083E463E00E94B5013C
:100F400082E462E00E946C0181E465E00E946C0131
:100F500081E464E00E946C0128B3812F902F64E645
:100F600070E00E94410B207F262B28BB80E197E296
:100F70000197F1F72A97F0F081E464E00E94B5014F
:100F800081E465E00E946C0182E462E00E946C01F1
:100F900083E463E00E946C0128B38F2D9E2D6AE0EC
:100FA00070E00E94410B207F262B28BB80E197E256
:100FB0000197F1F781E465E00E94B50181E464E006
:100FC0000E946C0183E463E00E946C0182E462E0B1
:100FD0000E946C0128B38F2D9E2D6AE070E00E9464
:100FE000410B207F282B28BB80E197E20197F1F786
:100FF000DF91CF911F910F91FF90EF90089582E4C0
:1010000060E041E00E94DB0082E461E041E00E9498
:10101000DB0082E462E041E00E94DB0082E463E006
:1010200041E00E94DB0083E465E041E00E94DB00D8
:1010300083E464E041E00E94DB0083E462E041E09D
:101040000E94DB0083E463E041E00E94DB0008953E
:101050000F931F93082F162F0E943003812F0E9499
:101060002903802F0E9429030E943003812F816071
:101070000E94290380E00E943F03182F0E9436033C
:10108000812F1F910F910895FF920F931F93182F97
:10109000062FF42E0E943003802F0E942903812FF7
:1010A0000E9429038F2D0E9429030E94360380E3AA
:1010B00095E70197F1F71F910F91FF9008950E9416
:1010C00039030895DF92EF92FF920F931F93DF93FE
:1010D000CF930F92CDB7DEB7D82E8B017A0181E086
:1010E000898380E26030780708F019820E9430031B
:1010F0008D2D0E942903812F0E942903802F0E9499
:1011000029030E9430038D2D81600E94290380E015
:101110000E943F03F70180830E94360389810F906C
:10112000CF91DF911F910F91FF90EF90DF90089585
:10113000EF92FF920F931F93DF93CF930F92CDB750
:10114000DEB7F82E8B01E42E81E0898380E26030E7
:10115000780708F019820E9430038F2D0E9429031E
:10116000812F0E942903802F0E9429038E2D0E9427
:1011700029030E94360380E49CE90197F1F78981F5
:101180000F90CF91DF911F910F91FF90EF900895F5
:101190000E94390308951F9316B881E465E00E9408
:1011A000B50181E464E00E946C0181E463E00E9487
:1011B0006C0181E460E00E949402882311F411E044
:1011C00011C081E461E00E949402882311F414E0CC
:1011D00009C081E462E00E949402882311F417E0C0
:1011E00001C010E081E464E00E94B50181E465E0A3
:1011F0000E946C0181E463E00E946C0181E460E084
:101200000E949402882311F412E00FC081E461E08F
:101210000E949402882311F415E007C081E462E083
:101220000E949402882309F418E081E463E00E949C
:10123000B50181E465E00E946C0181E464E00E94F4
:101240006C0181E460E00E949402882311F413E0B1
:101250000FC081E461E00E949402882311F416E03B
:1012600007C081E462E00E949402882309F419E037
:10127000812F1F91089581E460E040E00E94DB002F
:1012800081E461E040E00E94DB0081E462E040E054
:101290000E94DB0081E465E041E00E94DB0081E424
:1012A00064E041E00E94DB0081E463E041E00E94F1
:1012B000DB0081E460E00E946C0181E461E00E9457
:1012C0006C0181E462E00E946C010895AE98C798B9
:1012D000C698C598C49887FDC79A86FDC69A85FDAD
:1012E000C59A84FDC49AAF9A95E09A95F1F7AF98A4
:1012F000C798C698C598C49883FDC79A82FDC69AB8
:1013000081FDC59A80FDC49AAF9A85E08A95F1F770
:10131000AF9888E592E00197F1F70895AE9AC798E3
:10132000C698C598C49887FDC79A86FDC69A85FD5C
:10133000C59A84FDC49AAF9A95E09A95F1F7AF9853
:10134000C798C698C598C49883FDC79A82FDC69A67
:1013500081FDC59A80FDC49AAF9A85E08A95F1F720
:10136000AF9888E592E00197F1F70895DF93CF9366
:1013700000D000D0CDB7DEB790E8998390EC9A8387
:1013800094E99B8394ED9C836150FE01E80FF11D6D
:101390008081860F0E94660980E49CE90197F1F73D
:1013A0000F900F900F900F90CF91DF9108951F93A2
:1013B000CF93DF93EC0110E003C00E948E091F5F02
:1013C000FE01E10FF11D80818823B9F7DF91CF91F4
:1013D0001F9108950F931F93CF93DF93062FEC0176
:1013E00010E004C089910E948E091F5F1017D0F38E
:1013F000DF91CF911F910F91089581E00E946609BE
:1014000085E08A95F1F780E29EE40197F1F708956F
:101410000F931F93CF93DF938B01883090F4880F45
:10142000880F880F805C0E946609C0E0D0E0F80158
:10143000EC0FFD1F80810E948E092196C830D105D6
:10144000B1F7DF91CF911F910F910895CF93DF9363
:10145000EC01888182958F708A3010F0895C01C020
:10146000805D0E948E0988818F708A3010F0895CBF
:1014700001C0805D0E948E09DF91CF91089588BBE5
:10148000AE98AF9A80ED97E0FC013197F1F7AF98F5
:101490000197F1F708950F931F93A79AA69A87B320
:1014A000806F87BB88B388BB80E30E943F0A00E25D
:1014B0001EE4C8010197F1F780E30E943F0AC801CA
:1014C0000197F1F780E30E943F0AC8010197F1F705
:1014D00080E20E943F0AC8010197F1F7C801019715
:1014E000F1F788E20E9466098CE00E94660986E0B6
:1014F0000E94660980E80E94660980E49CE90197E1
:10150000F1F71F910F91089580EC0E94660980E425
:101510009CE90197F1F70895EF92FF920F93DF9303
:10152000CF93CDB7DEB728970FB6F894DEBF0FBEC6
:10153000CDBF9E012F5F3F4F38872F8326E0EF817D
:10154000F88511922A95E9F7BE016F5F7F4F4AE057
:1015500050E00E948A0B00E07E010894E11CF11C1F
:1015600003C00E948E090F5FF701E00FF11D80811B
:101570008823B9F728960FB6F894DEBF0FBECDBF0B
:10158000CF91DF910F91FF90EF900895BF92CF928E
:10159000DF92EF92FF920F93DF93CF93CDB7DEB739
:1015A00028970FB6F894DEBF0FBECDBFB62E9E01B2
:1015B0002F5F3F4F38872F8326E0EF81F885119208
:1015C0002A95E9F7BE016F5F7F4F4AE050E00E9425
:1015D0008A0B00E06E010894C11CD11C09C00F5F8A
:1015E0008B2D602F0E94B609F70180810E948E0921
:1015F0007601E00EF11CF7018081882381F728969F
:101600000FB6F894DEBF0FBECDBFCF91DF910F9123
:10161000FF90EF90DF90CF90BF9008950F931F93AE
:10162000DF93CF93CDB7DEB72B970FB6F894DEBF1D
:101630000FBECDBFDE011196E4EAF0E08BE0019031
:101640000D928150E1F7CE0101960E940E0708EC41
:1016500010E086E890E00E94A40580E29EE4F80194
:101660003197F1F70197D9F7F4CF991B79E004C0CE
:10167000991F961708F0961B881F7A95C9F78095D1
:101680000895AA1BBB1B51E107C0AA1FBB1FA617C9
:10169000B70710F0A61BB70B881F991F5A95A9F71B
:1016A00080959095BC01CD01089597FB092E0726E2
:1016B0000AD077FD04D0E5DF06D000201AF470953B
:1016C00061957F4F0895F6F7909581959F4F089506
:1016D000A1E21A2EAA1BBB1BFD010DC0AA1FBB1F36
:1016E000EE1FFF1FA217B307E407F50720F0A21BA8
:1016F000B30BE40BF50B661F771F881F991F1A9415
:1017000069F760957095809590959B01AC01BD013E
:10171000CF010895FB019F01E8944230C4F04532A7
:10172000B4F44A3029F497FB1EF4909581959F4FAD
:10173000642F77270E94410B805D8A330CF0895D0E
:101740008193CB010097A1F716F45DE251931082CB
:10175000C9010C94AB0BDC01FC01672F719177235D
:10176000E1F7329704C07C916D9370836291AE175C
:0A177000BF07C8F30895F894FFCFF7
:10177A003A002020202020202020202050424D20E6
:10178A003A200054656D7065726174757265203A0D
:10179A002000204320000D0A48656C6C6F20667299
:1017AA006F6D2055415254002C002B002A00400036
:1017BA004000290080250000080100000001010006
:00000001FF
